##"*************************"
##"*         levi45        *"
##"*************************"

:100000005E284D34B2342834E434F6340F348B3463
:10001000D1343A34C93493347E345534A0346C34FA
:1000200017342C34C1344A341F347934A234B634F2
:10003000683480345D343334F434DE340734E534EA
:100040009B34A7340D349E34E33460343634F934B1
:100050005A341134D234C8347534BB344C3424345B
:100060008F34EF344134D8341E342634FB34B33467
:1000700084343934A7346234CD345C34903405345C
:100080007A346D29072910293129072907290729D9
:100090000729232989008316081483120808890A6E
:1000A0000800662945290729212907290800080091
:1000B00007293A2906299E03263024297F30620029
:1000C000A620A12089014B208F20891D632818308C
:1000D000840005308720981F73288E2086201F07F4
:1000E000D921E330FA289C031C031E06031DFF28B8
:1000F0008E201D091E069900000899068F20840A8B
:100100009C0B7C288E209901903003291C088D00BF
:10011000AB208000840A8D0B8828003419088C00DD
:100120002130A7205F308613A520F3208F018E0099
:100130008C0C0C0C803986008F06A6200F088E0BC5
:100140009828B92086001630A72066001430FF3E9C
:10015000031DA728DF34861BAB282130A7200830D9
:100160008E00060D8C0CB920A6208E0BB128A6207F
:100170000C080800DB204F3084000008E3208403D3
:100180008419BD280612CE20CC200616F3280616A8
:10019000CE20CC200612F3288616DF34CF3066003E
:1001A0000834C720100AE3208E00EF208C0D8E0B40
:1001B000D5280C08080011078900C7201008E32083
:1001C0000318DD2809088C00CE208E008C0D030E4C
:1001D00010398600CC2086128E0BE6286600CC20D3
:1001E0000314061E03108612083403301E0603197A
:1001F0002234E230A000E2309F0003309E001E084F
:10020000023E990061308F208E206728F520A230B1
:100210009F000230A0000130A2000530A100FE289E
:100220000A304A20373E0830031C242988000A304F
:1002300089008316081555308900AA308900881472
:1002400020290E30242911308900F5204B209E00F2
:100250008D001F3084004B208000840A8D0B2B29D9
:10026000FF2820308400FF308C001E08FE3E9E00D8
:10027000E921FF28F5209E001F30840072308000A5
:10028000840A0430041F3F29FF280A304A208C00CA
:10029000270830384A200C06031D17292108A00022
:1002A0002B08A100F52101309200A70EA70D920D99
:1002B00077211830BA20403072211030BA203830FF
:1002C00072210830BA207121BA200729F521722144
:1002D0002730DA2171212F30DA21D2309F001230FD
:1002E000FE2830308400483C8C000830E92118306A
:1002F00084008F01892199218F1E7A2980218021F4
:100300001C308F0089218F0299218F0203188229C6
:1003100000344B08B5214A08B8214908B8214808DB
:10032000A921CF061908CE061A08CD061B08CC064F
:1003300008344F08B5214E08B8214D08B8214C08A3
:10034000A921CB061908CA061A08C9061B08C8063F
:100350000834B8218C001B0D980D990D9A0D9B0D3A
:100360008C0BAB290411180808009C019C0A9E0103
:100370001E079E019E0D880012088A000F081F1C90
:10038000C429DB20D120C6292707D92188070318D3
:100390009E0A8F0A8A010808D7210F398000080EAB
:1003A000D721F0398004840A10309C070B340F39B0
:1003B0001C07820089008D150D03483E840000084B
:1003C00088000D0309068400080880008D0BDC29D5
:1003D00008008D00000888000C08840708088000C9
:1003E0000C0384028D0BEA290800A00D200E910059
:1003F000033990009102A0389007211B90152834F2
:10040000003400340034003400340034003400344C
:10041000003400340034003400340034003400343C
:10042000003400340034003400340034003400342C
:10043000003400340034003400340034003400341C
:10044000003400340034003400340034003400340C
:1004500000340034003400340034003400340034FC
:1004600000340034003400340034003400340034EC
:1004700000340034003400340034003400340034DC
:1004800000340034003400340034003400340034CC
:1004900000340034003400340034003400340034BC
:1004A00000340034003400340034003400340034AC
:1004B000003400340034003400340034003400349C
:1004C00095348D344A34BB34B8349E34D03423341C
:1004D0000D34D234BA347D3427347D34A1343234EF
:1004E000BF34C734C634AF346134F734283497345A
:1004F0008834343416341F34D934E2340234183496
:100500000434813467349C341534C134D634063411
:10051000F034C834F634B4345334E9343B346F34F3
:10052000A4343E347134F434D634E7345734E234EE
:100530004F34B6348534A9343A34A43405341534F0
:100540001C3471342734B634C034AA349D344D344D
:10055000AC343534D734C034C03490349434BF34E0
:10056000D3340F344B347234DA34173409340F3443
:100570002434AA34D0340C34A734BA341334BE34FF
:1005800005348F3494345D349034C5344E34F734AC
:10059000B434F5343A345734EF34E934F5347E3436
:1005A0005534853498342534BB346B34DF343E34D1
:1005B00003349734B33483348534043449348F346A
:1005C000F434F634BC341F34C3341B34C0341E340A
:1005D0003B348C34B8349134FF3486344E34733425
:1005E000C534AA346034B2349134D9341934D8348F
:1005F000C23468340D3440343634A534D7342E3404
:10060000243408346F34EE344134AC342534663449
:10061000A7344834263480349F342534AA346134D6
:100620005D3488349B34ED3460341634C2349134F4
:100630006F34B5343134573458341A3437343D3488
:100640009634A33467348D34DD3417348734B534AD
:100650005834423428347F343D3461346534223494
:10066000FD348834D3349C349B349E34CC344E34A3
:100670007E34A1346D3410341834F9349534633435
:1006800000340034003400340034003400340034CA
:1006900000340034003400340034003400340034BA
:1006A00000340034003400340034003400340034AA
:1006B000003400340034003400340034003400349A
:1006C000003400340034003400340034003400348A
:1006D000003400340034003400340034003400347A
:1006E000003400340034003400340034003400346A
:1006F000003400340034003400340034003400345A
:100700000034003400340034003400340034003449
:100710000034003400340034003400340034003439
:100720000034003400340034003400340034003429
:100730000034003400340034003400340034003419
:100740000034003400340034003400340034003409
:1007500000340034003400340034003400340034F9
:1007600000340034003400340034003400340034E9
:1007700000340034003400340034003400340034D9
:1007800000340034003400340034003400340034C9
:1007900000340034003400340034003400340034B9
:1007A00000340034003400340034003400340034A9
:1007B0000034003400340034003400340034003499
:1007C0000034003400340034003400340034003489
:1007D0000034003400340034003400340034003479
:1007E0000034003400340034003400340034003469
:1007F0000034003400340034003400340034003459
:02400E00FA3F77
:104200003B00150011001200CA0007001100CA008F
:104210000600C200BB0021000500B30003006200DD
:10422000FF0015008200020004001100540052003B
:10423000490043004F004C004F0052002000540042
:1042400056000000FF00FF00FF00FF000A005200C0
:104250004B00F500000000007A00FB0000000000A9
:1042600000000000000066002E0005006600180037
:10427000BB00120000000000000000000000000071
:00000001FF
